:103E000001C0A0C011248FEF94E09EBF8DBF84B786
:103E100090E89093610010926100882361F0982FE0
:103E20009A70923041F081FF02C097EF94BF282E24
:103E300080E0B1D0E5C082E082B988E181B98CE050
:103E400080B986E88CBF8EE0A6D090D0813479F41A
:103E50008DD0182F92D0123811F480E004C088E081
:103E6000113809F083E07ED080E17CD0EECF82343F
:103E700019F484E189D0F8CF853411F485E0FACFC4
:103E8000853541F473D0C82F71D0D82FCC0FDD1FEA
:103E900074D0EACF863519F484E076D0DECF84364C
:103EA00091F564D063D0F82E61D0D82E00E011E0F7
:103EB00058018FEFA81AB80A59D0F80180838501FC
:103EC000FA10F6CF5AD0F5E4DF1201C0FFCF50E070
:103ED00040E063E0CE0136D08E01E0E0F1E06F011A
:103EE00082E0C80ED11C4081518161E0C8012AD016
:103EF0000E5F1F4FF601FC10F2CF50E040E065E08E
:103F0000CE0120D0B1CF843771F430D02FD0F82E2D
:103F10002DD033D08E01F80185918F0123D0FA94F2
:103F2000F110F9CFA1CF853739F427D08EE11AD01F
:103F300084E918D084E097CF813509F0A9CF88E0D3
:103F40002AD0A6CFFC010A0167BFE895112407B665
:103F500000FCFDCF667029F0452B19F481E187BF85
:103F6000E8950895159BFECF83B90895179BFECF62
:103F7000149901C0A89583B10895F8DF803211F03B
:103F800085E1F0CF84E1FDCFCF93C82FEFDFC150A3
:0E3F9000E9F7CF91F2CF98E191BD81BD089580
:023FFE000008B9
:0400000300003E00BB
:00000001FF
