:107C000001C0F1C011248FEF98E09EBF8DBF84B7F3
:107C1000882369F0982F9A70923049F081FF02C052
:107C200097EF94BF282E80E00FD10C94000085E0E0
:107C30008093810082E08093C80088E18093C9002E
:107C40008CE08093CC0086E08093CA008EE0FCD06C
:107C5000259A84E023EC3FEF91E030938500209358
:107C6000840096BBB09BFECF1D9AA8954091C8009A
:107C700047FD02C0815089F7CDD0813479F4CAD054
:107C8000C82FD4D0C23811F480E004C088E0C138D5
:107C900009F083E0B8D080E1B6D0EECF823419F499
:107CA00084E1CBD0F8CF853411F485E0FACF853567
:107CB00081F4B0D0E82EAED0F82E87FF07C08BB786
:107CC00081608BBFEE0CFF1CB1D0E5CF8BB78E7FF0
:107CD000F8CF863579F49ED08D3451F49BD0CBB754
:107CE00099D0C170880F8C2B8BBF81E0A6D0CCCFF0
:107CF00083E0FCCF843609F045C08CD0C82FD0E09B
:107D0000DC2FCC2787D0C82B85D0D82E5E01B3942A
:107D100000E011E04801EFEF8E1A9E0A7BD0F801D7
:107D2000808384018A149B04A9F780D0F5E410E0D5
:107D300000E0DF1609F150E040E063E0C70153D0F6
:107D40008701C12CDD24D394F601419151916F013B
:107D500061E0C80148D00E5F1F4F2297A9F750E09D
:107D600040E065E0C7013FD096CF6081C8018E0D2D
:107D70009F1D78D00F5F1F4FF801F395C017D107F3
:107D8000A1F789CF843701F545D0C82FD0E0DC2F8B
:107D9000CC2740D0C82B3ED0D82E48D08701F5E460
:107DA000DF120BC0CE0DDF1DC80154D02CD00F5FE9
:107DB0001F4FC017D107C1F76ECFF80187918F0110
:107DC00022D02197D1F767CF853739F42FD08EE1B4
:107DD0001AD085E918D081E85DCF813509F074CFDC
:107DE00088E032D071CFFC010A0167BFE895112409
:107DF00007B600FCFDCF667029F0452B19F481E130
:107E000087BFE89508959091C80095FFFCCF8093B7
:107E1000CE0008958091C80087FFFCCF8091C800F4
:107E200084FD01C0A8958091CE000895F3DF8032D3
:107E300011F085E1E8CF84E1FDCFCF93C82FEADFD1
:107E4000C150E9F7CF91F2CFE0E6F0E098E19083FE
:107E500080830895F999FECF92BD81BDF89A992744
:107E600080B50895262FF999FECF92BD81BD20BD22
:0E7E70000FB6F894FA9AF99A0FBE019608958B
:027FFE00000879
:0400000300007C007D
:00000001FF
