:10FC000001C0DCC0112484B790E890936100109289
:10FC10006100882361F0982F9A70923041F081FF43
:10FC200002C097EF94BF282E80E0F9D0E9C185E0AB
:10FC30008093810082E08093C00088E18093C100BE
:10FC40001092C40086E08093C2008EE0E8D0209A33
:10FC500084E02FE13FEF91E0309385002093840012
:10FC600096BBB09BFECF189AA8954091C00047FD67
:10FC700002C0815089F7B9D0813479F4B6D0C82F49
:10FC8000C0D0C23811F480E004C088E0C13809F067
:10FC900083E0A4D080E1A2D0EECF823419F484E1D5
:10FCA000B7D0F8CF853411F485E0FACF853541F42B
:10FCB0009CD0E82E9AD0F82EEE0CFF1CA2D0EACFF2
:10FCC000863519F484E0A4D0DECF843609F045C02F
:10FCD0008CD0C82FD0E0DC2FCC2787D0C82B85D084
:10FCE000D82E5E01B39400E011E04801EFEF8E1AC8
:10FCF0009E0A7BD0F801808384018A149B04A9F7B3
:10FD000080D0F5E410E000E0DF1609F150E040E0BB
:10FD100063E0C70153D08701C12CDD24D394F601E1
:10FD2000419151916F0161E0C80148D00E5F1F4FB2
:10FD30002297A9F750E040E065E0C7013FD0AACF85
:10FD40006081C8018E0D9F1D78D00F5F1F4FF80195
:10FD5000F395C017D107A1F79DCF843701F545D0A2
:10FD6000C82FD0E0DC2FCC2740D0C82B3ED0D82ED7
:10FD700048D08701F5E4DF120BC0CE0DDF1DC801AE
:10FD800054D02CD00F5F1F4FC017D107C1F782CFBF
:10FD9000F80185918F0122D02197D1F77BCF85374C
:10FDA00039F42FD08EE11AD086E918D08AE071CFCD
:10FDB000813509F083CF88E032D080CFFC010A0181
:10FDC00067BFE895112407B600FCFDCF667029F0E7
:10FDD000452B19F481E187BFE89508959091C00003
:10FDE00095FFFCCF8093C60008958091C00087FFE7
:10FDF000FCCF8091C00084FD01C0A8958091C60011
:10FE00000895F3DF803211F085E1E8CF84E1FDCF82
:10FE1000CF93C82FEADFC150E9F7CF91F2CFE0E6E8
:10FE2000F0E098E1908380830895F999FECF92BD28
:10FE300081BDF89A992780B50895262FF999FECFAC
:10FE40001FBA92BD81BD20BD0FB6F894FA9AF99AF7
:06FE50000FBE01960895AB
:02FFFE000008F9
:040000030000FC00FD
:00000001FF
