:10FC000001C0DDC011248FEF90E19EBF8DBF84B78E
:10FC1000882361F0982F9A70923041F081FF02C0E2
:10FC200097EF94BF282E80E0FED0EAC185E08EBD1C
:10FC300082E080939B0088E180939A008BE0809320
:10FC4000990086E080939D008EE0EDD0BD9A84E01F
:10FC500020E93FEF44E050E23DBD2CBD46BF06B673
:10FC600002FEFDCF98B3952798BBA89590919B0075
:10FC700097FD02C0815081F7BCD0813479F4B9D0AE
:10FC8000C82FC3D0C23811F480E004C088E0C13866
:10FC900009F083E0A7D080E1A5D0EECF823419F43B
:10FCA00084E1BAD0F8CF853411F485E0FACF8535F8
:10FCB00041F49FD0E82E9DD0F82EEE0CFF1CA5D06D
:10FCC000EACF863519F484E0A7D0DECF843609F078
:10FCD00045C08FD0C82FD0E0DC2FCC278AD0C82BCE
:10FCE00088D0D82E5E01B39400E011E04801EFEF18
:10FCF0008E1A9E0A7ED0F801808384018A149B04A8
:10FD0000A9F783D0F5E410E000E0DF1609F150E038
:10FD100040E063E0C70153D08701C12CDD24D394B8
:10FD2000F601419151916F0161E0C80148D00E5F29
:10FD30001F4F2297A9F750E040E065E0C7013FD090
:10FD4000AACF6081C8018E0D9F1D79D00F5F1F4F14
:10FD5000F801F395C017D107A1F79DCF843701F5BE
:10FD600048D0C82FD0E0DC2FCC2743D0C82B41D0BF
:10FD7000D82E4BD08701F5E4DF120BC0CE0DDF1D6E
:10FD8000C80155D02FD00F5F1F4FC017D107C1F743
:10FD900082CFF80185918F0125D02197D1F77BCFB4
:10FDA000853739F432D08EE11DD086E91BD082E050
:10FDB00071CF813509F083CF88E035D080CFFC0149
:10FDC0000A0160936800E89511248091680080FD25
:10FDD000FCCF667031F0452B21F481E180936800FF
:10FDE000E895089590919B0095FFFCCF80939C002F
:10FDF000089580919B0087FFFCCF80919B0084FD3C
:10FE000001C0A89580919C000895F3DF803211F025
:10FE100085E1E8CF84E1FDCFCF93C82FEADFC15061
:10FE2000E9F7CF91F2CF98E191BD81BD0895E199B5
:10FE3000FECF9FBB8EBBE09A99278DB30895262FE6
:10FE4000E199FECF9FBB8EBB2DBB0FB6F894E29A13
:08FE5000E19A0FBE019608952E
:02FFFE000008F9
:040000030000FC00FD
:00000001FF
