:020000021000EC
:10FC000001C0EDC0112484B7882369F0982F9A7041
:10FC1000923049F081FF02C097EF94BF282E80E018
:10FC20000FD10C94000085E08093810082E08093E6
:10FC3000D00088E18093D1008CE08093D40086E0EE
:10FC40008093D2008EE0FCD0279A84E023EC3FEF33
:10FC500091E0309385002093840096BBB09BFECF4B
:10FC60001F9AA8954091D00047FD02C0815089F7A6
:10FC7000CDD0813479F4CAD0C82FD4D0C23811F491
:10FC800080E004C088E0C13809F083E0B8D080E1AA
:10FC9000B6D0EECF823419F484E1CBD0F8CF8534DE
:10FCA00011F485E0FACF853581F4B0D0E82EAED0DE
:10FCB000F82E87FF07C08BB781608BBFEE0CFF1C4F
:10FCC000B1D0E5CF8BB78E7FF8CF863579F49ED053
:10FCD0008D3451F49BD0CBB799D0C170880F8C2B49
:10FCE0008BBF81E0A6D0CCCF83E0FCCF843609F077
:10FCF00046C08CD0C82FD0E0DC2FCC2787D0C82BB3
:10FD000085D0D82E5E018EEFB81A00E012E04801CF
:10FD1000EFEF8E1A9E0A7AD0F801808384018A144C
:10FD20009B04A9F77FD0F5E410E000E0DF1609F1AD
:10FD300050E040E063E0C70152D08701C12C92E05F
:10FD4000D92EF601419151916F0161E0C80147D070
:10FD50000E5F1F4F2297A9F750E040E065E0C70112
:10FD60003ED095CF6081C8018E0D9F1D77D00F5F6B
:10FD70001F4FF801FE5FC017D107A1F788CF843766
:10FD800001F544D0C82FD0E0DC2FCC273FD0C82BC2
:10FD90003DD0D82E47D08701F5E4DF120BC0CE0D41
:10FDA000DF1DC80153D02BD00F5F1F4FC017D107E5
:10FDB000C1F76DCFF80187918F0121D02197D1F73D
:10FDC00066CF853731F42ED08EE119D087E917D070
:10FDD0005CCF813509F074CF88E032D071CFFC015F
:10FDE0000A0167BFE895112407B600FCFDCF6670D5
:10FDF00029F0452B19F481E187BFE895089590918A
:10FE0000D00095FFFCCF8093D60008958091D0005C
:10FE100087FFFCCF8091D00084FD01C0A895809120
:10FE2000D6000895F3DF803211F085E1E8CF84E158
:10FE3000FDCFCF93C82FEADFC150E9F7CF91F2CFC2
:10FE4000E0E6F0E098E1908380830895F999FECF91
:10FE500092BD81BDF89A992780B50895262FF9990A
:10FE6000FECF1FBA92BD81BD20BD0FB6F894FA9A9D
:08FE7000F99A0FBE01960895F6
:02FFFE000008F9
:040000031000FC00ED
:00000001FF
