:020000021000EC
:10FC000001C0F2C011248FEF90E19EBF8DBF84B779
:10FC1000882369F0982F9A70923049F081FF02C0D2
:10FC200097EF94BF282E80E013D10C94000085E05C
:10FC30008EBD82E080939B0088E180939A008BE9DF
:10FC40008093990086E080939D008EE001D1BD9A5B
:10FC500084E024E23DEF44E050E23DBD2CBD46BFD0
:10FC600006B602FEFDCF98B3952798BBA895909154
:10FC70009B0097FD02C0815081F7D0D0813479F488
:10FC8000CDD0C82FD7D0C23811F480E004C088E0AE
:10FC9000C13809F083E0BBD080E1B9D0EECF823427
:10FCA00019F484E1CED0F8CF853411F485E0FACF91
:10FCB000853581F4B3D0E82EB1D0F82E87FF07C088
:10FCC0008BB781608BBFEE0CFF1CB4D0E5CF8BB738
:10FCD0008E7FF8CF863579F4A1D08D3451F49ED043
:10FCE000CBB79CD0C170880F8C2B8BBF81E0A9D083
:10FCF000CCCF83E0FCCF843609F045C08FD0C82F2D
:10FD0000D0E0DC2FCC278AD0C82B88D0D82E5E013B
:10FD1000B39400E011E04801EFEF8E1A9E0A7ED006
:10FD2000F801808384018A149B04A9F783D0F5E449
:10FD300010E000E0DF1609F150E040E063E0C701A9
:10FD400053D08701C12CDD24D394F6014191519108
:10FD50006F0161E0C80148D00E5F1F4F2297A9F7DD
:10FD600050E040E065E0C7013FD096CF6081C80118
:10FD70008E0D9F1D79D00F5F1F4FF801F395C017AF
:10FD8000D107A1F789CF843701F548D0C82FD0E03B
:10FD9000DC2FCC2743D0C82B41D0D82E4BD08701A5
:10FDA000F5E4DF120BC0CE0DDF1DC80155D02FD0FA
:10FDB0000F5F1F4FC017D107C1F76ECFF8018791B2
:10FDC0008F0125D02197D1F767CF853739F432D00D
:10FDD0008EE11DD087E91BD082E05DCF813509F02F
:10FDE00074CF88E035D071CFFC010A0160936800C0
:10FDF000E89511248091680080FDFCCF667031F099
:10FE0000452B21F481E180936800E8950895909155
:10FE10009B0095FFFCCF80939C00089580919B00F0
:10FE200087FFFCCF80919B0084FD01C0A895809145
:10FE30009C000895F3DF803211F085E1E8CF84E182
:10FE4000FDCFCF93C82FEADFC150E9F7CF91F2CFB2
:10FE500098E191BD81BD0895E199FECF9FBB8EBB16
:10FE6000E09A99278DB30895262FE199FECF9FBB85
:10FE70008EBB2DBB0FB6F894E29AE19A0FBE0196A5
:02FE80000895E3
:02FFFE000008F9
:040000031000FC00ED
:00000001FF
