:107E000001C0B1C0112484B7882361F0982F9A7003
:107E1000923041F081FF02C097EF94BF282E80E09E
:107E2000D3D0EEC085E08093810082E08093C000D3
:107E300088E18093C1008CE08093C40086E0809349
:107E4000C2008EE0C1D0259A84E023EC3FEF91E0A0
:107E5000309385002093840096BBB09BFECF1D9A83
:107E6000A8954091C00047FD02C0815089F792D08B
:107E7000813479F48FD0182F99D0123811F480E022
:107E800004C088E0113809F083E07DD080E17BD028
:107E9000EECF823419F484E190D0F8CF853411F418
:107EA00085E0FACF853541F475D0C82F73D0D82F2F
:107EB000CC0FDD1F7BD0EACF863519F484E07DD06E
:107EC000DECF843691F566D065D0F82E63D0D82EFB
:107ED00000E011E058018FEFA81AB80A5BD0F80152
:107EE00080838501FA10F6CF61D0F5E4DF1201C07E
:107EF000FFCF50E040E063E0CE0135D08E01E0E0FE
:107F0000F1E06F0182E0C80ED11C4081518161E037
:107F1000C80129D00E5F1F4FF601FC10F2CF50E0D0
:107F200040E065E0CE011FD0B1CF843771F432D08C
:107F300031D0F82E2FD03AD08E01F80185918F01E3
:107F400022D0FA94F110F9CFA1CF853731F42ED099
:107F50008EE119D085E917D097CF813509F0AACFE6
:107F600088E032D0A7CFFC010A0167BFE895112451
:107F700007B600FCFDCF667029F0452B19F481E1AE
:107F800087BFE89508959091C00095FFFCCF80933E
:107F9000C60008958091C00087FFFCCF8091C0008B
:107FA00084FD01C0A8958091C6000895F3DF80325A
:107FB00011F085E1E8CF84E1FDCFCF93C82FEADF50
:107FC000C150E9F7CF91F2CFE0E6F0E098E190837D
:047FD000808308950D
:027FFE00000879
:0400000300007E007B
:00000001FF
