:101E000001C0B0C011248FE592E09EBF8DBF84B7A2
:101E1000882361F0982F9A70923041F081FF02C0C0
:101E200097EF94BF282E80E0C6D0EAC085E08EBD33
:101E300082E08BB988E18AB986E880BD8CE089B9F7
:101E40008EE0B9D0BF9A84E024E23DEF44E03DBD8E
:101E50002CBD48BF08B602FEFDCF98B3905898BB82
:101E6000A8955F9902C0815091F790D0813479F4A0
:101E70008DD0182F92D0123829F480E083D080E1E1
:101E800081D0F3CF83E01138C9F788E0F7CF8234EF
:101E900019F484E189D0F3CF853411F485E0FACFC9
:101EA000853541F473D0C82F71D0D82FCC0FDD1FEA
:101EB00074D0E5CF863519F484E076D0DECF843651
:101EC00099F564D063D0182F61D0D82E012F90E6F9
:101ED000E92EF12C57018FEFA81AB80A57D0F70155
:101EE000808301507501B1F758D0F5E4DF1201C0CD
:101EF000FFCF50E040E063E0CE0134D07E0180E6C9
:101F0000C82ED12CF601419151916F0161E0C701BA
:101F100029D0F2E0EF0EF11C1250A1F750E040E0A2
:101F200065E0CE011FD0ABCF843771F42FD02ED017
:101F3000F82E2CD032D08E01F80185918F0122D05D
:101F4000FA94F110F9CF9BCF853731F426D08EE18A
:101F500019D083E917D099CF813509F0A9CF88E04E
:101F60002AD0A6CFFC010A0167BFE895112407B665
:101F700000FCFDCF667029F0452B19F481E187BF85
:101F8000E89508955D9BFECF8CB908955F9BFECFC9
:101F90005C9901C0A8958CB10895F8DF803211F0EA
:101FA00085E1F0CF84E1FDCFCF93C82FEFDFC150A3
:0E1FB000E9F7CF91F2CF98E191BD81BD089580
:021FFE000008D9
:0400000300001E00DB
:00000001FF
